:020000040800F2
:10000000A80600203DCC0008C1CB0008C3CB0008E7
:10001000C5CB0008C7CB0008C9CB00080000000012
:10002000000000000000000000000000CBCB000832
:10003000CDCB000800000000CFCB0008D1CB0008DA
:1000400059CC00085DCC000861CC000865CC0008E4
:1000500069CC00086DCC000871CC000875CC000894
:1000600079CC00087DCC000881CC000885CC000844
:1000700089CC0008D5CB00088DCC000891CC0008B5
:1000800095CC000899CC00089DCC0008A1CC0008B4
:10009000A5CC0008A9CC0008ADCC0008B1CC000864
:1000A000B5CC0008B9CC0008BDCC0008C1CC000814
:1000B000C5CC0008C9CC0008CDCC0008D1CC0008C4
:1000C000D5CC0008D9CC0008DDCC0008E1CC000874
:1000D000E5CC0008E9CC0008EDCC0008F1CC000824
:1000E000F5CC0008F9CC0008FDCC000864F8AE0D92
:1000F000B5E85CB3445644553BF43BF38DADF72172
:10010000FDC1FCC0FC00FA40FC40EEA585F4659AF8
:100110007DB7C5E9FE20FE00FD00F5C295EF4497CE
:1001200044973C353C5544974CB744B744B744B723
:100130004CF8551955395539553955395519541300
:10014000E52DFC86FC87FCA7FCC8FCC9FCE9FCC9C2
:10015000FCC9FCC8FCA7FC87FC47FC47F446F42616
:10016000F426EC26EC06EC06EC06EBE6EBE6E3C741
:10017000CB86AAA56902A103B020602170415081FD
:10018000792199C1C346AAC6930631438C4B6B8D26
:1001900041E94A2A082192E2FD01FCC0F461CA82C9
:1001A000FD00EEE69E768E3A8E398E3A8E3A8E3984
:1001B00085F97DD875B76D9765776578447523F4B3
:1001C00034753C963C9644B744D744D75D7A5D5924
:1001D000551854F854F84CD755185D7965796579F8
:1001E0005D795D795D795D7A5D7A555A6536BE8A4D
:1001F000CE8664F1445544553BF43BF395CDFF2145
:10020000FDA0FCC0FC00FA20FBE0F6439E316DB976
:1002100075B7BE0AFDA0FD20FCE0F5E385D144974B
:1002200044973C353C56449744B744B744B74CB721
:1002300054F85519553955395539553955194C34DE
:10024000D50EFC86FC87FCA7FCC8FCC9FCE9FCE9D0
:10025000FCC9FCC8FCA8FC87FC67FC47F446F426F4
:10026000F426EC26EC06EC06EC06EBE6E3E6E3C649
:10027000D3A6AAA46984E553B862602038406121FE
:100280008161BB05B306BB674963080139A641E933
:10029000528B29650020B362FCC0FCC0EC22AA018D
:1002A000FD20E7079E768E3A8E3A8E3A8E3A8E3948
:1002B00086197DF875B76D97657765774CD623F409
:1002C00034553C9644B644D744D744D75D595D591C
:1002D000553954F84CF84CD755185D7965995D79C6
:1002E0005D995D995D795D7A5D7A555A7573D6E74A
:1002F000E7046D0F3C5544553C143BF395CEFF226B
:10030000FD80FCC0FBE0FA00FBA0FDA0B64D6DD85F
:100310006DB8AE2DF5C1FCC0FD00E62575B3449760
:1003200044973C553C56449744B744B744B74CB700
:1003300054F85519551955395539551955194C55FC
:10034000C4CEFC87FC87FCA7FCC8FCC9FCEAFCEA1D
:10035000FCE9FCC9FCA8FC87FC67FC47F446F426D2
:10036000F426EC26EC06EC06EC06EBE6E3E6E3E628
:10037000D3C7A2E56964DC90B8416801592279418C
:10038000A283CB86AAC6A3270820000139C85A8BAE
:1003900039C700211081DBC2FC40FCC0D3C291A14F
:1003A000FD20E7279E768E5A8E5A8E5A8E5A8E3AA6
:1003B00086197DF875D86DB7657765574CF72C347D
:1003C0002C553C9644B644B74CF74CD75D595D5913
:1003D000553955184CD744B755386579659A6579BC
:1003E00065995D995D795D7A5D7A555A8DF0EF2555
:1003F000F7037D4E3C5544553C143C1395CEFF22EB
:10040000FD80FCE0FBE0F9E0FB40FD20CE4975D724
:1004100065B98DF1DE46FD40FD40D66A6D95449785
:1004200044B73C56447644B744B744B74CB74CB78E
:100430004CF855185518551955195519551844762D
:10044000ACB0FCA8FC87FCA7FCA8FCC9FCEAFCEA51
:10045000FCE9FCC9FCA8FC87FC67FC47FC46F426C9
:10046000F426F426EC26EC06EC06EC07EBE6E407B3
:100470009A8550E15882B082C020680161019A02D9
:10048000C386BB06C38751630000002020E42925F2
:10049000082100014141FBA1FBC0FCE09AE291610F
:1004A000FD40DF0896778E5A8E5A8E5A8E5A8E3AB3
:1004B00086197DF975D86DB76578657754F72C3452
:1004C0002C1434753C9644D74D174CF755595D594B
:1004D0005D3955184CD7449655185D7965996579FD
:1004E0005D795D995D795D7A5D7A555AB66BFEE20C
:1004F000FE818DAC443444553BF43C138DADFF215B
:10050000FD80FCE0FBE0F9C0FAC0FCC0E64685F5E2
:10051000659975B5B64DF623F623B68E6576449784
:1005200044B73C76449644B744B744B74CB74CB74D
:100530004CF8551854F854F85519551954F84C9767
:100540009490FCC8FC87FCA7FCA8FCC9FCEAFCEA68
:10055000FCEAFCC9FCA9FC88FC67FC67FC47F44684
:10056000F426F426EC26EC06EC06EC07EBE6D38743
:10057000788270425021B820B020580079A2CB2553
:10058000D3C7AAE6A32708200021002000200000EE
:10059000002000018A83FB21FB40FCC261E399A19A
:1005A000FD81CF0A96588E5A8E5A8E5A8E5A8E399F
:1005B0008E1785F875D86DB765976D9655163454B6
:1005C00023D334553C9644D755184D3755585D596B
:1005D0005D5955184CD7449655185D7965996579DC
:1005E0005D795D995D795D7A5D7A555ACEC8FE6018
:1005F000FDE09DE9445344343BD43C138DADF722D8
:10060000FD80FCE0FBE0F9E0FA80FC80F5E39E125F
:100610006D99657885F1DEA6E6C5A69065564477A6
:1006200044B74496449744B744B744B744B74CD70B
:100630004CF854F854F854F85519551954F84CB866
:100640008451FCE9FC87FCA7FCA8FCC9FCEAFCEA95
:10065000FCEAFCEAFCC9FC88FC87FC67FC67FC46FA
:10066000F426F426F426EC06EC07EBE7EC07AA8563
:10067000A1C7B04160219842902258A1B305D3A6EA
:10068000BB06BB8849430000002008210020082049
:1006900000201081D404FA80FAC0D40428E3AA20F0
:1006A000FE01BEED8E598E5A8E5A8E5A8E5996572D
:1006B0009E54861675D76DB76D9675B455353474DE
:1006C00023D334553C7644B64D1755585D595D7A61
:1006D0005D5955394CD744B755185D79659A659978
:1006E0005D795D995D795D7A5D7A557AD6C7FDE071
:1006F000FD40BE074C7244343BD43C14858FF70256
:10070000FD80FCE0FC00FA40F220FC00FD81B64ECA
:100710006DB865997DF3D6E6E744B6AD6575449747
:100720004498449744B744B744B744B744B74CD807
:100730004CF854F854F85518551955394D194CF9C9
:100740007432FD0BFC87FCA8FCA8FCC8FCEAFCEAA0
:10075000FCEAFCE9FCC9FCA8FC87FC66FC66FC46DC
:10076000F446F426F426EC26EC06EC07EC499A66EF
:10077000E5B6B8E36800486148218204CBA6D3A659
:10078000AAE6A3270000002000200020002000404F
:10079000000062A3FCA2FA00F2817A641882C2E02F
:1007A000FE61B6AE8E5896598E5A8E5A9677AEB175
:1007B000C6ED9E727DD66DB775948DD1655544B5E5
:1007C00023D32C5534963C964CF75D585D59657A89
:1007D0005D7A55394CF84CD755395D7A659A6599EB
:1007E0005D995D995D79557A557A557AE705FE20D0
:1007F000FD00E6256CEF3C3533D43C147D50EF030F
:10080000FDA0FCC0FC40FB01FA20FB60FD00CE6AAD
:1008100075F765988E11EF24FF41DF087DB24C9685
:100820004CB7449744B744B744B744B744D74CF89F
:100830004CF854F854F865385D3955394CF84D1872
:100840006452ED2BFC67FC87FCA7FCC8FCEAFCEAC1
:10085000FCEAFCEAFCC9FCA8FC87FC67FC66FC66B9
:10086000FC46F426F426F425F446B3479AA689E616
:10087000CB8EB882700072449AA5C386DBC6B326BD
:10088000BBA8414300000000002000200020002001
:1008900010A1CDA5FC40F261A1A341A62861DBC156
:1008A000F6C3A6718E3996398E598E599E94D729E2
:1008B000EF44BECC85F675B78DD1A5EE6D954D177D
:1008C00023F32C3434963C9644B655385D59659ADA
:1008D0005D7A553954F84CF85D59659A657A5D79B9
:1008E0005D995D995D795D7A557A557AF762FE403A
:1008F000FCC1F5E295AB4C5433D344157532E6E5B3
:10090000FDC0FCC0FC80FBE1FA40FA80FC20E6461A
:10091000861465B8A66FFEE2FE40F7239E2D4CD6E6
:100920004CB744B744B744B744B744B74CD84CF875
:1009300054F854F85D187556655855184CF854F825
:100940004B8EE52DFC67FC87FCA8FD09FD0AFCEA3F
:10095000FCEAFCEAFCC9FCA8FC87FC67FC66FC66B8
:10096000FC46F426F426F426D3C770A2580058613A
:10097000B041B0206820A2C5DBE6DBC6D3C7B30711
:1009800092E700000020000000200020002000214D
:100990009CA8FEE4EC44A1E35186316738A1F4C180
:1009A000E6E58E338E1A96398E5A9659BECFF723C6
:1009B000FEE0D6E88E1575B5AE0EBDEB75B55D588B
:1009C0002C3424343C963C76449654F75D3965BB10
:1009D000657A5D39551854F85D5965BB657A659936
:1009E0005D995D795D795D7A557A557AFF20FE21B2
:1009F000FC81FD40C60764B033D344356514DEC7BF
:100A0000FDE0FCC0FCA0FC80FAE0FA00FB20F5C38E
:100A10009E316DB7B68DFEA1FD60FEC1C6C95D15E4
:100A20004CB744B744B744B744B744B744D74CF87D
:100A300054F854F95D5785936D56551855194C5512
:100A40005BAFCCCEFC87FCA8ECA9AB67CC6AFD0BF6
:100A5000FCEAFCEAFCE9FCA8FC87FC67FC66FC6697
:100A6000FC46F426F426FC46AAA598A398415021FA
:100A7000B041B0216041BB46E407E407B2E6C3A938
:100A800038E200000020002000200020002018E3B1
:100A9000946893C361C349C64A29086369A1FD816B
:100AA000CEA87DF486389678967AA676DF29FEA1C0
:100AB000FDE1EEE69E529612CE08C5E975B55D7968
:100AC00034552C343CB63C7644764CD655186DBB28
:100AD000659A5D595D3955185D59659A659A6599AC
:100AE0005D785D795D795D7A557A557AFE20FD21D4
:100AF000FC00FCA0EDE37D0D3BD244555CF4CEA898
:100B0000FE20FCC0FCC0FCE0FBA0F9E0FA60FD2187
:100B1000B66D75F6BECCFE60F4E0FE20DF057553C1
:100B20004CD744B744B744B744B744B744D74CF85C
:100B300054F854F86D76A5CF75945518551943D3CC
:100B40009515B46EFCA7FCA893088C10730BC42AEF
:100B5000FD0AFCEAFCE9FCA8FC87FC67FC66FC6675
:100B6000FC46FC46FC66FC669AE8DC71B020582125
:100B7000784188226902DC07EC26CB87BB47826676
:100B80000000002000200020002000200020210381
:100B9000420741E74A694A4918A20000B302FE2110
:100BA000AE6B6DB58E369E769678B6B1F724FDC0E5
:100BB000FD00F6C3B6ACBE8CEE03C60975B66599EA
:100BC0003C962C553CD63C763C7544B655186DFC8D
:100BD000659A5D595D3955185D59659A6DBB65BA61
:100BE0005D795D795D795D7A557A557AFCA0FBE097
:100BF000FBA0FC80F581954A3BF2447554D5B68A3A
:100C0000FE61FCC0FCC0FCE0FC40FA80F9E0FC4165
:100C1000D6688612C6EAFE60FCE0FD80F7038DD040
:100C20004CD744B844B744B744B744B74CF754F82A
:100C30004D1855187D94BDCB8592551855185433D1
:100C400094F5A470F466DC2762EB94F4D71D8BCC8A
:100C5000ECAAFCEAFCE9FCA8FC87FC67FC66FC4605
:100C6000FC46EC689AA5AB2692C9E4B2B800604194
:100C7000696360C1BB26F447EC27AAC6B3A9186113
:100C8000000000000000002000200020002010A232
:100C90004A49422831851061000038C1F462F68269
:100CA0008E2E6DB59E53B6949E77C6EDFEC0FD00A8
:100CB000FCC0FE41E6E6E665F5A0B60B6D966599CB
:100CC00044D62C5544D73C763C7544B65D59761CC9
:100CD0006DBA5D5955394CD75539659A6DDB65BA92
:100CE00065995D795D795D7A557A557AFBA0FB004F
:100CF000FB20FC60FD40A5693C12447554B59E2D57
:100D0000F6A1FCE0FCC0FCC0FCA1FB40FA00FB80AB
:100D1000EE24AE8DDF07FE41FCA0FD00FEC2A62D35
:100D20004CD744B844B744B744B744B65D146D5487
:100D30005D365D178DB1D5E78DD15538553843D324
:100D40005B2FAD13DC06C3C9D6DC9D359D55CE7A2D
:100D5000BBEAFD0AFCE9FCC8FCA7FC87FC86FC6634
:100D6000FC87B2C5680158626903B8C3B801602145
:100D7000C388E429F428F426BB26C3A869E500004B
:100D8000000000000000002000200020002008419A
:100D9000088108410820004000209A83FD40E6A415
:100DA00075D07DD2AE8FB693A696D729FE40FCA013
:100DB000FCA0FD60FE01F5A1EDC2A60E6D96659842
:100DC00044D6345544D73C963C7544B55D59761CA1
:100DD0006DDB5D5955394CB75D39659A6DDB6DBA80
:100DE00065795D795D795D7A557A557AFB20FA806F
:100DF000FAA0FC00FD40A5893C1244764C968DB0CB
:100E0000F6A3FD00FCC0FCC0FCC0FC60F300F34096
:100E1000FD81E6E6F724FDE0FC80FC60FE40BE8A32
:100E200054F644B844B744B744B754D595CFAE4C04
:100E300075945D579DEEEDE395EF553855394C555A
:100E40004B0EB5B7C3E8A3AA5B309D578CB2DF3D0C
:100E5000B4D1F4CAFCE9FCC8FCA7FCA6FC86FC667D
:100E6000F4478A26B8E588015021C000B0005861D7
:100E7000D3E7F446FC26DBE8B306A32759840841F0
:100E80000000000000000020002000200841002099
:100E900000410841084000205901F403FDE0CEA7BD
:100EA00075909E4EC6ACAEB4AED4E745FD80FC0056
:100EB000FC60FCE0FD40F5C1D6488DF265776578B1
:100EC0004CF7345544D744B73C9544B55558761C37
:100ED000761B659A5D5955185D39659A6DBB6DBA7B
:100EE00065795D795D795D7A557A557AFB00FA60AE
:100EF000FA80FBA0FD40A5893C1344754C967D7299
:100F0000E6A5FD40FCA0FCC0FD00FD80FC80FBC010
:100F1000FD00FEA1FEA1FD60FC60FBC0FDC0CEA7F0
:100F20005CF444D844B744B744B76513C688E72592
:100F30009E2E6D94B62BF5A295CF55175519549743
:100F40004B30ADB7B42B72A86CD95C159D55BDF86C
:100F5000D679CC4AFCE9FCC9FCA7F486FC86FCA740
:100F6000DBE6AC2FE38E980040419861882169430D
:100F7000EC67EC46EC47AAE5CBE830C15984106039
:100F800000000000000000200020002000200041A0
:100F90000041082000003861D283FC61FE61BE87F9
:100FA0008DEDCEA8CEABA696B6F2F6E3FC80FB4064
:100FB000FC00FCA1F602DE88A66E75D56578659802
:100FC0004D1734554CF844D73C9544B55538761CEC
:100FD000761B65BB5D5955395539659A6DDB6DDA00
:100FE00065995D795D795D79557A557AFB00FA806E
:100FF000FA60FB80FD40954A3C1344754C9565347E
:10100000D6A9FDA0FCC0FCE0FDC0FEA0FDE0FCA058
:10101000FCE0FDA0FDA0FD00FC60FB20FD20DEC685
:10102000653344B74497449744978590EF04FEC0D6
:10103000CEC89E0DDE26EDA28DB05538553954D759
:101040004B729515AC8F6B0C75BE755C7C94A513BB
:10105000EF5DB42CFCE9FCC8FCA7F4A7DBE88A45EB
:10106000A327A30BD289A00060C271434840B326D6
:10107000FC67F467BB46C3A87225000059A4106042
:10108000000000000000002000200020002000419F
:10109000086110823902CA43FAE0FC60FEA1C6E58D
:1010A000BEA7E6E4B64D9E77BEF1FE81F360FAA0DE
:1010B000FB40FCE0EEA5AE6F85F46DB765776598F3
:1010C000555734754D184CF83C9544B55538761C39
:1010D000761C6DDB5D5955185539659A6DDB75FBCE
:1010E00065995D795D795D79557A557AFB00FA608D
:1010F000FA60FBA0F5A18D2B3C1344754C965CF671
:10110000B66BFE40FCE0FD00FE60FF20FEC0FD402F
:10111000FCC0FCE0FCE0FCE0FC60FAC0FC80E6C542
:101120006D533C763C5644764CB69E0CFEC1FDC0D9
:10113000F6C2DE87F5C2DDE57DB255385538551764
:101140004B938453B5535B2E6D1B5C376C7794D3F4
:10115000E71CBCD0F4A9FCC8FCA7F4888963700123
:1011600048A28882C001A0006923DC28C3A7F466D6
:10117000F467D3E7AB05B38710200000596418610A
:101180000000000000000020002000200020084196
:10119000004029456226DA62FAE1FBE0FE80EF6456
:1011A000F765C5656C6C9E98C70FFE21FAE0FA6082
:1011B000FAE0FD20D6C98E3575B76D9765976598AD
:1011C0005D7844D64D184D18449644D65538761B54
:1011D000761C6DDB5D5955385D59659A6DFB761B44
:1011E0006DBA5D795D795D79557A557AFB20FA6043
:1011F000FA60FC00DE256CAE3C1444954C9654D647
:10120000960FF6A2FD00FD20FEC0FF81FF41FDE12B
:10121000FCC0FCC0FCC0FCC0FC81FAA0FBE0EEC43A
:1012200075723C5634153C564CD5BE69FE40FCE008
:10123000FDE1FE21F5A1BE0A6D74553855385D39C2
:101240004B915AECBDF74B0F5C363AB05BB384B3AD
:10125000C638B554E468FCEAFCEAD3E79165B862A5
:1012600058207041C80190017184FC88FC47FC46FD
:10127000EC47A2C5DC2939020000206151642081BD
:101280000000000000000020002000200020084195
:101290000020108242086143B1E2EB62FE43F7276F
:1012A000ACC441E375529698CF2DFDE1FAC0FA40E7
:1012B000FAE0FD41C6AC861775D86DB7659765989D
:1012C000659955584D17555844F74CF755586E1CAD
:1012D000763C6DDB5D5955385D7A65BB6E1B761BC0
:1012E0006DFA65995D595D595D595559FB80FA80D4
:1012F000FA60FC61B60954503C144475447654D6E7
:101300007D92E6C5FD80FD60FF21DF46EF45FE6171
:10131000FCE0FCC0FCC0FCC0FCA0FA80FB80F6A393
:1013200075713C5733F534365CF4D6A7FDC0FCA08C
:10133000FD20FD60EE0495EF5516551855385D38C3
:10134000326B31E895364B314B934B5221897C54AB
:101350009D36B5D9BC2A8A458A65AB48D554C16546
:1013600078005041A06168009AA5FC87F467FC688A
:10137000AAE6D3E88265000010209B4B720620612C
:101380000000000000000020002000200020084194
:1013900008410020214552694965614372835A64BE
:1013A00031846BC886358E78CF0DFDE1FAE0FA40C6
:1013B000FB00F541BE8E861875F86DB865976577A8
:1013C00065995D994D1755384D174D175D58763C09
:1013D000761C6DFB55394CF75D7A65BB6DFB761B52
:1013E0006DFA659A5D595D595D595538FC60FB0091
:1013F000FAC0F4C18D8B44333C144C7544554CB643
:101400006554C6A8FE20FD80F722AE6DBECBFEE27D
:10141000FD20FCC0FCA1FCC0FCA0FA80FB40F682D1
:1014200075903C5634363C556D13DEA6FD80FC802D
:10143000FCA1FD40CE4865744CF7551755384C5407
:101440006B4D426B74B564153AAE647808A64209D8
:101450009515A5FB6A26784160216144CC10C10432
:1014600078006144608158E2DC27FC66FC87C34653
:10147000BB67BBA81040000020C2C42E9AC82061E0
:101480000000000000000020002000200020084193
:1014900008410841004129664A8A524A4A094209DC
:1014A0004A45B64A75F58E59C6EEFE41FB60FA60B4
:1014B000FBA0F5E1BE8F86197DF975B86DB865772B
:1014C0005D9965BA55584D17553855175D78761C96
:1014D0006E1B6DFB55394CD75D79659A6DFB6DFBC5
:1014E0006DFB659A5D595D5955595538FDA1FC4014
:1014F000FC00F541854C3C143C344C754455447516
:101500005515AE4DF6C2FDE0F6E38E118E30EF04B8
:10151000FD80FCC0FC00FC61FC80FA60FB20F682D0
:101520007D8F3C563C5544957552E6E4FD20FC20E9
:10153000FC40FD61B64B55164CD7551754F85BF07F
:10154000CD92424964136C9631EA64B9431110E4B8
:101550008473857961E8B90490014820A861C021AD
:1015600078009285CC28D429FC66FC66D3E7AB05CD
:10157000DC4930E10000000041658AA892A728A15B
:1015800000000000000000200020002000200020BB
:10159000084108410041002010A229252145108260
:1015A000AC64CF2975F48E39B6D1F6E3FC80F2E055
:1015B000FCA0F6C2B6B086197DF975B86D9865784D
:1015C0005D785D995D794D17551755175D586E1B00
:1015D0006E1B6DFB553844D75D79659A6DDB6DFBED
:1015E0006DFB659A5D595D5955585538FEA2FD80D1
:1015F000FD40F5C17D2D3C144434447544353C35E3
:1016000054F685D3DEE7FE80EEE38E117DD4DF074E
:10161000FDC0FCA0FB60FBC1FC61FA60FB20F68210
:101620007D703C564C9354D37570EEE3FCC0FB6068
:10163000FBA0FD61AE0B54F64CD75D384C33AD3199
:10164000ED0B6A885BB16CB5214764987D1A6435EF
:10165000741274F693EFE42FA0004800A020C0207D
:101660006801B2E5FCC7FC87FC66E4489AC5E489DA
:1016700061C400000000000062077A47822628A1AA
:1016800000000000000000200020002000200020BA
:1016900008410841082008210801000000007222CA
:1016A000E5A5A58786328E39A6B5EF47FDA0FBA03C
:1016B000FD80EF26A6948619861975D86DB86598B1
:1016C00055585D795D99553855375D375D586E1BB6
:1016D0006E1B6DFC4CF844B65D7A65BB6DFB6DFB13
:1016E0006DDB659A5D595D595D585558EF04FEC133
:1016F000FE80EE227D2D3BF3443544754435445540
:1017000054F76D76B68CF702EF03963175B6CEC9F5
:10171000FE20FCE0FAE0FAE0FBE0FA20FB60F68352
:101720007570449564F25CF27D6FF6C2FC20FAC0DD
:10173000FB00FD21B60B54F64CF7551763F0E5D0CE
:10174000FCA68AE74AEE6C3229EB5BD34B0F53734E
:101750006BD26C7592CBDB0CA80050418082982232
:101760005861DBE7FC67FC87F467A2C5DC4992C6D9
:1017700000000000000000007247A3299AC828A1B9
:1017800000000000000000200020002000200020B9
:1017900008410841084008400021000051A2DCA691
:1017A00082A3CDC6A68F86399698D72CFE81FCA041
:1017B000FE41D70B9657861986197DF975B865983D
:1017C000553755585D7955385D575D375D586DFB18
:1017D0006E1C6DFC553944B7555965BB6DFC6DDB0E
:1017E0006DDA65995D795D585D585558BE8BE72572
:1017F000F743EE83850C3C1344144455443544555B
:101800005CF865588DF2D708DF0696117597BEAC67
:10181000FE60FD20FAC0FA20FB01FA00FB80EE63B7
:101820006D504CD47D705CF27D6FF682FBA0FA6047
:10183000FAC0FCA0C6085D1555174C34ACF2F52B68
:10184000FC86BB87422948E463306BD0BDF86390C7
:10185000532F74D68125C021A80068E29286486182
:101860008A45F487FC66F4A8AAE5D3E8B3A8182053
:101870000000000000000820828892C89AE828C270
:1018800000000000000000200020002000200020B8
:10189000084108410020002000204163C4677A63AA
:1018A0008282FE42BE8B86388E7ABF11FEE2FD80B8
:1018B000FEE2B6F08E38861986197DF875D86D97D8
:1018C00055364D17553855385D5665355D586DFBA5
:1018D0006E1C6DDC5D7A44D755395D7A65BB65BB9E
:1018E00065BA65995D785D585558555885B29DEC37
:1018F000BE69D646850D3C123C14443444354455EB
:101900005CF85D597596A650BEAC8DF46D98B66EB8
:10191000FEA1FD40FAA0F9C0FA20F9C0FBC0EE8399
:101920006D505D1295CD5CD27D6FF682FB60FA60E2
:10193000FAA0FC80CE075D3554D763F1EDD1FC8869
:10194000FC87E4475164912559A88472A5769D5679
:101950004B0E74F779C7C00098007163ECA8D408E7
:10196000F488FC66FCA7BB25C386CC4928A10000EF
:1019700000000000000010617A677206A30828A129
:1019800000000000000000200020002000200020B7
:101990000020086131A6212418A349C549C4418308
:1019A000DC63FDA0C6AA86588E7BA6D4EF25FE2058
:1019B000EF25A6B48E3986197E197DF875D86D97F6
:1019C00055164CF6553855385D555D13553765DA63
:1019D0006DFC6DDB5D9A3C974D185D59659A5D9A7B
:1019E0005D9A65795D785D58555855586D776CF3FB
:1019F0007D70ADCB852D44113C143C1444354C75A1
:101A00005D185D5965797DD6861375B765B9A67081
:101A1000F6C1FD60FAC0F9C0F9A0F9C0FC00E68487
:101A20006D307D4EA60B5CB27D4FF6A3FB60FA6075
:101A3000FAA0FD00D66765364414AD12FD4BFC8656
:101A4000FC87FC8792C8E51460E47C318C93747346
:101A50004AEF7D386AEC902160019A85FCA7FC86EC
:101A6000FC86FCA7BB66BB26E4894122000000007F
:101A700000000000000018817A689B6BA32930A148
:101A800000000000000000200020002000200020B6
:101A90000020002029444A8A4A8B4A6A29878AC33F
:101AA000FCE1FDA0BEAA86588E5B9EB7E727FEC06C
:101AB000D72A96768E3986397E187DF97DD86D972E
:101AC000551644F64D184D184CD34CD24CF665BA09
:101AD0006DFB65DB5D7A34764D1855595D5A5D7A3C
:101AE0005D9A5D795D585D585558555865595CB695
:101AF0005CD37D2E8D4D5C6F44333C14443544558E
:101B00005D185D5865796D9965B76DB865B9965181
:101B1000F6E2FD80FB40FA40F980FA00FC60E665E1
:101B20006D2F9DAAB6095CB36D31EEE4FC20F28006
:101B3000FAE0FDA0C6885CF65BD0EDF1FC87FC8680
:101B4000FC86FC879A67DC3090A373AF4ACD63F2C2
:101B50004B0E751773CF71026963E468FC86FC67EE
:101B6000FCA8C3A7AB06ECAA598300000000002024
:101B700000000000000018A26A065943824630E2C5
:101B8000000000000000002000200020002008616C
:101B900018C30020002010A2212510A33922ECA395
:101BA000FCE0FE21AEAC7E398E5A9E97E727FF21DE
:101BB000C6EF96598E3986197E197DF975D86DB89C
:101BC000553644D64D174D1734333C5344D65D9AA1
:101BD0006DFB6DFB557A3CB64D39555955395D79DC
:101BE0005D995D795D585D5855585558657954D75C
:101BF00054B55CB18D6C852C4C723BF44455445506
:101C00005CF85D38655965796599659965998E13B4
:101C1000EEE4FDC0FC20FB20F9A0FA40FCE0E66504
:101C20007D6EC646BDE854735CF2DEC6FD40F3200F
:101C3000FB40FE00B66A4C11AD11FD2BFC66FC8624
:101C4000FC86FCA799A3B041A82141673A6E2A4DB2
:101C50004B0F74F78C0EE469EC89FC87FC86FCA8BA
:101C6000C3A7AAE5ECCA8244410300000001210396
:101C700000200020000018A2722679E669A438E24C
:101C8000000000000000002000200020002008418B
:101C9000294500200041002008003880CBA4FCC169
:101CA000FD00F6A2967076398E5A9E97DF28F725AA
:101CB000B6B3965A8E3A86197E197DF875D875D8BE
:101CC0005D5744D644F745172C342C1344B55D7941
:101CD0006DFB6DFC557A3CD7557955594D185539E2
:101CE0005D795D595D585D795D795558657954F731
:101CF0004CB64C73856DA5E964CF3C13443544550F
:101D000054F765386559657965796579659A85F51A
:101D1000E705FDE0FC80FBC0F9E0FAA0FD40E6A588
:101D20009DEBE6C4B5E844734CB3BE88FE60FCA0EE
:101D3000FBE0FE21A62B5BCFEDF1FCA7FC87FC8727
:101D4000FC87FCA7AA04B801B02130624B524B9229
:101D5000537274B79BCAFCA7FC87FC67FCA9C3A796
:101D6000AAE6F4AB826559847A060840000039651A
:101D70001061000010A220C382A87A0671E5390222
:101D800000000000000000200020002000200020B3
:101D900018E43184106120E47163CA83FBA1FC81E3
:101DA000FD40EEE486326E39865A9E98D70ADF0AE5
:101DB000A695965A8E3A86197E197DF975D875D8EA
:101DC0005D7744D644D64D1734552BF344955D5872
:101DD0006DDB6DFC557A44D7555955394D1855185A
:101DE0005D595D595D585D795D7955596D795CF73F
:101DF00054964C74750EBE47856C4C524415443550
:101E000054F765386559657965796579659A7DF521
:101E1000DF07FE00FCA0FC20FA00FAE0FD80EF03E3
:101E2000C6A6FEC1B5C74453449595CDF723FE60C1
:101E3000FCE0FE628D2BAD12FD4BFCA8FC88FC87FC
:101E4000FC87FCA7C30698419021610329A72A8D2E
:101E50006C756C74B3C9FC87FC87FCA8BB67AB05C9
:101E6000ECEA928541458BADAB6B20810000396572
:101E700020C2000021054985A34A7A0669A438E2F8
:101E800000000000000000200020002000200020B2
:101E900008415A678B0528C39204F320F360FC6065
:101EA000FD60EF057E117617865A9E99CF0ECEEF14
:101EB0009E98965A8E3986197E197DF975D875B80F
:101EC00065984CF644D64D183C952BF33C95553807
:101ED0006DDB6DFC557A44F8553955394D184D1860
:101EE00055585D585D385D595D5955596D795D1886
:101EF0004C96445464B0BE47AE0864B14C3444358B
:101F000054D75D38655965796579657965997DF648
:101F1000D6E8FE00FCC0FC60FA40FB40FD80FF21DB
:101F2000F762FE80BDE644523C966532B689F743BF
:101F3000FDC0F683846BEDD2FCC8FCA8FCA8FC872E
:101F4000FC87FC87EC8881635061CBC893076BF1F9
:101F500074B5632CE448FCA6FCC8BB66AB05ED0A6F
:101F60008AA55944730DAD12CC2D4144000039654A
:101F70003903000018A359A6AB4A7A0671E55983C4
:101F8000082100000000002000200020002008217F
:101F900000203124BBA681A35144F4C3FD00FC8082
:101FA000FD60EF059E6D86548E599679B6D2B6B413
:101FB000967A967A8E3A86397E197DF875B76DB71E
:101FC00065B84D1744F64D383CB623D33C755517CC
:101FD00065BB65FC5DBB4D184D1855194D184CF788
:101FE00055385D595D595D595D59555965795D188B
:101FF0004CB644555472A5E9D6A68D6E54734474FC
:1020000054D75D386559657965796579659975D76E
:10201000CEEAFE00FCE0FC60FA60FB40FCE0FEA0C3
:10202000FEE1FE20C6454C713C954CD57570C6C787
:10203000FEC1C584B551FD4DFCA8FCA8FCA8FCA8B8
:10204000FC88FCA7FCC8E469D408FCC8EC897AA722
:1020500041A5A326FCA7F4C8B325B325F4EA8285DD
:1020600049246A08A515A44FD40C51A60862394426
:10207000494300001062498592E972068A6672053A
:102080001062000000000000000000200020082175
:102090000021108271E4DA634963BCA5FE21FD4092
:1020A000FD40F722D706AEAE8E78967AA6B7A6B8D0
:1020B000969A967A8E5A863986197DF875B76DB7D5
:1020C0006DB855374D1755183C9623D3345454F7F3
:1020D000659A65DC65BB555944F84D194CF84CF7C9
:1020E00055385D795D595D795D79557965595D380A
:1020F00054D744754C53854BD6C4BE286CF04CB4B1
:1021000054B75D386539655965796D59659975D7E5
:10211000CECAFE20FD00FC60FA60FAC0FBE0FDC103
:10212000FDE1FDA0DEA474ED4C944C9654D595CD04
:10213000F704A489EDF2FCCAFCC9FCA8FCA8FCA821
:10214000FCA8FC88FCA8FCC7FCA7FCA7FC87F489BA
:10215000DC68FCC8EC88AAC5CB87F4EA8A85410311
:1021600061C628E3ADB7ABEDE4AE49850861312423
:1021700061C5000008414985726872269AC7824786
:1021800018A20000000000000020002000200040F5
:10219000004000403145B263ABC47AE3FE01FDE08C
:1021A000FD20FEC0FF21BEEB8E78967B9E9A9E9A04
:1021B000969A967A8E5A861986397DF975B76597FB
:1021C0006DB85D785537553844D623F334134CD663
:1021D0005D9A6DDC65BB555944F84D1844D74CF7F2
:1021E00055585D795D795D795D795D7965596538B9
:1021F00054D7447544546CAFCEA5E6C39DAB65126D
:1022000054D75D186539655965796559659975D7EC
:10221000CECAFE20FD20FC40FA60FA40FAC0FC80E5
:10222000FCE0FD40FF01AE2965114C9644B77551A5
:10223000AD89BD50FD6DFCEAFCC9FCC8FCC8FCA81A
:10224000FCA8FCA8FCA8FCC7FCA8FCA8FCA7FC8771
:10225000FCC7E428AAC5D408ECAA8224618561A53C
:1022600062275AEBBDB6BC0DE510414420C32903DB
:102270007A67002000214965598582889AC88AA812
:1022800020E3002010820841084108410020082076
:102290000040002010A251E5BCA87284F542FE2047
:1022A000FD40FE01FF02C6EB86798E7B9E7A967B0F
:1022B000967A967A8E5A861986397DF975B765971A
:1022C0006D9865985D785D584D172C342BF34495C7
:1022D0005D7A6DDC65BB555944F84CF844B74CF752
:1022E000555865795D795D795D795D796D59655987
:1022F00054F74C5544345471AE29F6E1D645958EC9
:1023000065155D375D38655965786D976DD87DF5D4
:10231000CEC8FE20FD20FC20FA20FA20FA80FB80A7
:10232000FC40FCE0FE40EEC485AD4CB644B75CD446
:10233000844DEDF1FCEAFCEAFCE9FCC9FCC9FCC8EF
:10234000FCC8FCC8FCA8FCA8FCA8FCA8FCA7FCA82E
:10235000D3E6AAE4E469DC8971E469A57A065165EB
:1023600083F0DF3DB490E4CED4AF312451C618A23F
:102370008AC91061088241445985B3CC7A4692C912
:102380003104086121042124086118C300000821D8
:102390000020002000202144524651C4D4A4F62439
:1023A000E505DCC4B443AE6E7E798E7B967A967B6F
:1023B000967A967A8E5A861986197DF875D8659719
:1023C0006598659865995D794D38347523F33C744B
:1023D0005D596DDB65DB5D7A4CF84CF844964CF743
:1023E0005559657965795D795D785D796D796D7936
:1023F0005D174C55443544538D8CEEE3F6C1C64809
:10240000859065365D385D5965787DF58E339650DB
:10241000DF06FE00FD20FC00F220F300FC20FC4063
:10242000FC20FCA0FD60FE41A60A4CB544B74BD28F
:10243000B552FD6CFCEAFCEAFCE9FCC9FCC9FCE80D
:10244000FCC8FCC8FCC8FCC8FCA7FCA7FCA8DBA611
:10245000BB25F4CACBE9698371C58A6659845A4998
:10246000C61ACE18A3ABFDD1B3EC39447AC90841E2
:102470008AE928A218C339237A06B38B69C49B0959
:10248000310410C3292531860861398608620000AD
:1024900000010001002000402965316559C281E238
:1024A0006121714268016AE9869B867B8E7A8E7B08
:1024B000967A967A8E5A7E1986397E1875D86D97D7
:1024C000659865986599659955583CB62C133433D1
:1024D0005D586DDB6DFB5D9A4D184CF844974CF8D8
:1024E00055595D795D785D795D795D797DB56D79F9
:1024F0005D184C564435443464EFD6A6FEE0EEA297
:10250000B64B75535D385D5965779631BEABC6E9FC
:10251000F723FDC0FD00FBE0FB20FD01FDC2FD60D7
:10252000FCC0FCA0FCC0FDA0B6294CD544766BCF06
:10253000EDF2FCEAFCEAFD0AFCEAFCC9FCE9FCE974
:10254000FCC9FCC8FCC8FCC8FCE9FCA8FC88EC6819
:10255000ECCB9B06594361C58226822651448B8E63
:10256000DE9A9B8CE52FF5B17B0951A6BC2D186234
:1025700082C8390320E431037A068A8869C5A349F1
:10258000394410A2396541E70841416639A708215D
:102590000000000008411081000031237265802294
:1025A000700081E7C10558826C938E9B8E7B8E7A7A
:1025B000967A967A8E5A7E198E397E1975F86DB78D
:1025C00065775D77659965BA5D5944D634342C13C7
:1025D0005D376DDB6DFC65BB55194CF844B74D1884
:1025E0005D5965795D785D785D7965789E2F7D951B
:1025F0005D184C76443544355492BE49FF00FE6068
:10260000E6E595EF65375D586578A64FE724F74313
:10261000FEC1FD60FCC0FC20FCC0FE41FDC0FD40D1
:10262000FD00FCC0FCA0FDA0BE2A54F63BD1BD526B
:10263000FD4CFCEAFD0AFD0AFCEAFCEAFCEAFCE9C6
:10264000FCC9FCC9FD09ECC9C3A7D3C7FCE9D4493F
:1026500059A328827A6669E571E669C58267BC2E4E
:10266000A3EDD4CEFDF2F5D249E682A9F5B23964E4
:1026700072874164292539037A06516471E6AB6A91
:10268000418528E341655A481062496549C739E8E0
:1026900010C318E331A6418530E2412282E6B1A79A
:1026A00098007A48C9C7680038C385778E9B8E7AB0
:1026B000967A967A86397E198E3986197DF86DB7A5
:1026C00065775D57659965BA5D784CD63C542C1298
:1026D0005D376DFB6DFB65DB555954F84CD84D18D3
:1026E0005D795D795D595D795D796D97D6479DF02E
:1026F0006D574C964C554C554C7495ACEF22FE40A2
:10270000FEA1C6A97593655765789E30EF23FF201B
:10271000FE01FD00FCC0FCE0FE41FE40FD00FCC0EF
:10272000FCC0FCC0FCC0FDE0B62A54D55C10D5301E
:10273000F50BFD0AFD0AFD0AFCEAFCEAFCE9FCE9EE
:10274000FD0AF4CACBC7AB04D408E4AB92E72881F6
:10275000000018618246822669C67A27C3EBCC2C1A
:10276000DD2FFE12FE13CD113123CC6EFE147B093A
:10277000622651C5392438E38206492471C6B3ABB9
:1027800049A6396441657AAA18C441856A4739A5C2
:10279000420741A64964722670E260005185E4F365
:1027A000A8016882B88278216020638E8EBC8E7A00
:1027B000967A967A8E5A7E198E3A86397E196DB837
:1027C00065775D575D7865BA65994CF73C9534122D
:1027D00055176DDB6DFB65DB5D7A55184CF85518A8
:1027E0005D995D7A65586D776D9785F3F621C64AD8
:1027F0007D965CD74C754C764C757531D6C6FEA06F
:10280000FDE0EF049E2D6556655885F3E706FEE072
:10281000FD61FCE0FCC0FDC0FEC1FDE0FD00FCC0B0
:10282000FCA0FCC0FCC0FE00B64954D384B1C48DEA
:10283000C3C8F52CFD0BFD0AFD2BFD2BFD0BE4CBD6
:10284000BBC7A2E4BBC7E4CCB3A952060841000051
:10285000000008208AE9CC2C8267A34AD42DD42D0D
:10286000FE13F612F6137B096A47FDD2FE13AC2D58
:1028700061E65A06494441238A26492371C5BC0CA6
:1028800049C659E63925934B39861081B3AC7A266F
:10289000512269C4A34AA34A9862A00160A3BA283E
:1028A000B0017001B021702170205A698E9B967B17
:1028B000967A967A8E5A7E198E3A86397E196DB836
:1028C00065775D575D5865BA6599551744B53433DA
:1028D0004CD56DDB6DFC65DB5D9A55395519553965
:1028E0005D7A5D796D9685D285D2A66DFE40E6242F
:1028F00095F1653754B74C764C7664F4B649FEE0F2
:10290000FD80FE81CEE77D92655875B6CEEAFEE089
:10291000FD40FCC0FCE0FE40FEA0FDE0FD61FCE0EF
:10292000FCC0FCC0FCC0FE00BE8785AF742BC5B2E6
:10293000ABC99AC6BB88C3E9BBC8AB279AA692A508
:10294000BBC8ECEBBC0A5A4642CC4C5411250000E3
:102950000020000020C2B3EBD44CC3EBB34ACC4DF3
:10296000F613FE54DD916A88ED92FDF2FE32CCD072
:1029700059E6620661C659848A88494471A3C44DE8
:1029800041A682A93925A38B5A2808627A88D40CDB
:10299000B329C3EB92E84903B249B82168209821D2
:1029A000B0216021A0616820802051E88E7B967B59
:1029B000967B8E5A8E5A7DF9863A863A85F96DD87D
:1029C0005D975D585D5865BA65B9553844B53C7436
:1029D0004CD56DDA6E1C65FC5D9A55395539553903
:1029E000657A65988DF2BE4BBE4CD6E7EEC2F60115
:1029F000AE2D6D575CF854B7549754B58D8EEF03D8
:102A0000FDC0FDC0EF22A64C6D756D97AE8EFF2107
:102A1000FDA0FCC0FD00FE80FEA0FDE0FD40FCC06E
:102A2000FC80FC81FCC0FDC0DEE4BE88B5EA5B6BC7
:102A3000BD31D4EEBBE9B368B3A9CC0AE4ABECEC8E
:102A4000B3EA62664ACB5C745D794D1821C8000018
:102A50000000082100007A47D42CD48EA3CABC6D94
:102A6000FE75FE54DD51DDB3FE33FE12FE12DD3184
:102A70005A066A26828772268A88516471C4C48E77
:102A800039A5B3EC41A6A38B9B6B20E33103D40D96
:102A9000DC2CC3CC70A258007986B88370207841B2
:102AA000804171A558816020902052098E9B8E7BB9
:102AB000967B8E5A8E5A7E19863A863A861975D832
:102AC0005D975D5855585D9A65BA5D784CF644B58A
:102AD00054F56DDA6DFC65FC5D9A5539551855391C
:102AE000657A75B7BE4DEE03EE83F6C2DEE6FE00F4
:102AF000CE496D9665185CD7549754966CD1D6E63E
:102B0000FE60FD20FEA1DF0685D165978E11EF24C2
:102B1000FE00FCE0FD20FEA0FEC0FDC0FCE0FC606D
:102B2000FB80FB80FC60FD60F722F742DEC664B0EC
:102B30003ACB5AA89388ABE9ABC993486A854A2730
:102B400042EB75567E5B65795D595517324A000038
:102B500008622925000051C5E530FE54FED6FE95D9
:102B6000F634FE54FE55FE55FE33FE13FE13E57299
:102B70005A066A27A34A8AC8826761858205BC6EA5
:102B80004185DD915A898B2AE5B2624600208AE9A7
:102B9000DC8DA2C8A001A0215820A041706179E677
:102BA0007184C42CA40E58A378005AEB8EBB8E7B84
:102BB0008E7B8E5A8E5A7E198639863A861975D83A
:102BC0005D98555855585D7965BA659955174CD536
:102BD00054F66DDA6DFB65DB5D9A55394CF8551985
:102BE0005D598E15E647FD00FDC0FE00C6CAFE40D9
:102BF000DE067DB465385CD754B754965C72AE2956
:102C0000FEE1FD60FE00FF43B68B75947DF4D707AF
:102C1000FE40FCE0FD20FEA0FEA1FD40FCC0FB80CC
:102C2000F2C0FB80FC60FD00FE81FF00E6C46D5138
:102C300054D64C324B8F4B4D534D5BD06CB4759882
:102C40007DF97E5B7E3B65995D385CF72A2A000042
:102C50002145316500005248FEF7FEB6FEB6FE96ED
:102C6000F654FE75FE55FE55FE55FE34FE34E5B2B3
:102C700049C67AA8B3ECA34A7A2669C582269B6B1B
:102C800059E6FE958C0E6A68FEB6CD30416528A2E5
:102C900092E992CACACBB001602190426882C44EC8
:102CA000C44DAB48EE56B513386274B486BC8E9BE7
:102CB0008E7A8E5A865A7E197E398639863975D92A
:102CC0005D98555855585D59659A659A55174CD574
:102CD0004CF565BA6DFB65DB659B55394CD85519CC
:102CE00065799E31EDE2FCC0FDA0FE20AE8EF6823D
:102CF000E6038DD365385CD75CD754964C34854D4C
:102D0000F704FE00FDC0FF01E705960F75D5C6CAA2
:102D1000FEA0FD00FD00FEA0FE41FCE0FC60F2C054
:102D2000F340FD21FD80FD00FD80FE00EEC37570C7
:102D300044B64CF665577DD97E1A7E1A7E1A7DFA06
:102D400075D87E1A7E5C6DDA5D5854F631E9000064
:102D50003A6A294500005268FF17FED6FEB7FE9674
:102D6000FE96FE75FE96FE75EE14FE75C4CFDD92DE
:102D70003964B3ECBC4DB38A71E571E58A678AA802
:102D8000934AFED6D5B35A06FE95FEF6C4D05041FE
:102D900048006207EDB6B8217021602171A5F65494
:102DA000FEB5ABCBB3CBF6B8AD135C118E7B8E7B8F
:102DB0008E7A865A86397E197E398639863975D952
:102DC0005D785558553855595D79659A55384CD5C3
:102DD0004CD55D996E1C65DB5D7A55395539553991
:102DE0006578B64DFD60FD00FE60FEE09E70EEA3CE
:102DF000F5E29DF065385CF75CD754B7443564B0B4
:102E0000D686FE81F580FE80FF22C6AA85F4B68EA6
:102E1000FEC1FD20FD20FEA0FE20FCE0FBC0F26014
:102E2000FCC1FE01FE21FDA0FCE0FD40F6A3858F64
:102E30004CD654D55D366DB875F975F97E1A7E1A83
:102E400075F97E3A867C761A5D5754B529870862F3
:102E5000536E210500004A28FEF7FEB6FED7FEB6E7
:102E6000FE96FE96EE34FE95F675F654AC6EC4F002
:102E70006A47ED30C44DBBAA69A582467A467A6896
:102E8000CCF0FEB6FED67B2AE614FF17BC4E982087
:102E900090205081BA08C00170206143C4CFFED792
:102EA000FEB6EE149B2ACC4DFEF9A5555BD0967A62
:102EB000867B863A7E1976187E59863A7E3A75D890
:102EC00055575558553855585D79659A5D584CD6C3
:102ED0004CD55D796E1C5D9A55594D18551855594C
:102EE0006597C64BFD20FDA0FF01FF619652EEA441
:102EF000F5C0A5EE65585D175CF754B644355473BC
:102F0000A5EAFF02FDA0FDE0FEC0EEE5A64FA66F1C
:102F1000F6C3FD20FD20FEA0FE00FCC0FB40F260D9
:102F2000FD81FD80FDC0FE00FCE0FD00F68285AF66
:102F30004CD654D55D366DB875F975F976197E1A8B
:102F400075F97E3A8E7C7E1A6577547321041926B2
:102F50005BD118E300004228FF17FEB6FED6FEB68E
:102F6000FEB6FEB6FE96FEB6FEB5E5F3B4F2CD7241
:102F70008B09FDD2E550B36A69A59AC869C48AE98C
:102F8000F654FE95FED6BD72DE13FF17A3EDC249BF
:102F9000A80060209820B8016861D511FED6FEB661
:102FA000FE96FED6B490AB29D4CEFF5AA55553AFAA
:102FB000863A7E3A761975F8863A863A7E3A75F9F7
:102FC00055374D584D5855585D795D9A55594CD6E1
:102FD0004CD55D5865FC5D7A55384CD74CF8555842
:102FE0006596CE29FD20FE20F743E7649652EEA4B5
:102FF000F5A0AE2D6D5765185CF754B644554C5589
:10300000754DE704FE20FD60FE20FEA1CEC8A68E11
:10301000EEC5FD40FD20FEA0FE20FCC0FB00FAC076
:10302000FDA1F500FD40FE00FD00FCE0FE6295CE36
:1030300054F654F5655675D875F975F976197E1AF2
:103040007E197E3A8E9C7E3B65984C1218A2326B9C
:103050005BD110A200004A68FF17FED6FED6FED64E
:10306000FEB6FEB6FEB6FEB6FEB6CD52CDF6C4F145
:10307000A3ACFE34F5D2A32971C59AC85963C4AF75
:10308000FEB6FE95FEB5F6D7E675DE34ACD1ECF3B0
:10309000B00060206861800179C6FE96FED6FEB65B
:1030A000FEB6FE96E6777267AB29D4EFFF7AB59548
:1030B0004B6D75D8761975F8861A863A863975F982
:1030C000553745174D3855585D595D9A5D594CF641
:1030D00054F65D5865DB55594D1844B74CD75559D2
:1030E0006D96D628FD40FE80DF06AE8B9E51EEA485
:1030F000FD80B62D6D5865385CF754B64C76447536
:103100005CD0C6A7FEC1FD40FD80FDE0F6C4C6CA86
:10311000E6E5FD80FD00FEA0FE20FCA0FB00FB20FC
:10312000FD80FCE0FD00FDC0FD00FCE0FE419DEDEA
:1031300054F55D16655775D975F97E1976197E199E
:103140007E197E3A8E9C865B6DD9436F10615C322E
:103150004B6F10A200005289FF18FED6FED6FED695
:10316000FED6FEB6FEB6FEB6FE75BD13D658AC4E04
:10317000C4AFFE34F5B192A77A0592A86184D53028
:10318000FE95FE95FEB6F67669E640E26A28C1E74E
:10319000B80060618A6971A5C48FFEF7FED7FEB6DC
:1031A000FEB6FE95FF188BCE79C5C3CBEDF3FF7A43
:1031B000BDF6430C651576197E3A865A86397E1A15
:1031C0005D5844F74D38555855585D795D79551718
:1031D00055165D7865DB55594D1844B644D7555999
:1031E00075B5DE26FD40FEE1BEAA7DF2B68FF6A4DF
:1031F000FD81BE2C757865385CF754B654964C75D5
:103200004C539E0CF722FDA0FD00FD60FE21E6E57B
:10321000EF03FDE0FD00FE80FE40FCC0FB20F360FC
:10322000FD80FCC0FCE0FDA0FD00FCC0FE21A60C62
:103230005D155D366D9775D975F97E197E397E19E4
:103240007E197E3A8E9C867C75D9326A19257D97C7
:103250003A8B18C310C3632CFF18FED6FED6FED6D9
:10326000FED6FED6FED6FED6DDD3C5B6C594AC4E90
:10327000EDD3FE14ED717A268A4692A76184D4EFCD
:10328000FEB5FE95FEF7BC6F900078215020B80087
:10329000B00060C2C40DCCCEF674FEF7FED7FEB609
:1032A000FEB6FE96FED6C5B55986B34ADD2FFED6CC
:1032B000FF39D6784B0C4C31865A865A7E3A7E1AA4
:1032C0005D993CD74D38555955585D795D5955171D
:1032D0005D3765995DBB55794D1844B74CD7555945
:1032E0007DB5DE25FD60FF029E4F6597CF08F68213
:1032F000FD40BE2B757865385CF754B654964C5635
:103300004C347D50DF04FE40FCE0FD00FD60FEA279
:10331000F742FE40FD00FE80FE80FCE0FB81F3A052
:10332000FD60FCC0FCE0FD60FCE0FCC0FE20A62BC4
:103330005D355D366DB875D975F97E3A7E3A7E1A7F
:103340007E1A7E3A8E9C8E9C75571945432D7DB80A
:1033500039E821256B6EAD55FED7FED6FEF7FED6B9
:10336000FED6FED6FED6FED7BCF1C617BD11BCEF09
:10337000FE34FE33E4F069C592878A666984D4EF2F
:10338000FE95FEB5FEF79B4CB124A0205040806115
:10339000882171C5E550FE95FED6FED6FEB7FEB675
:1033A000FEB6FE96FE95EEB85A28A2C8DCADFEB673
:1033B000FEB6FF18EF1A6BAF4B2D85F9863B7E1AD0
:1033C00065DA3CD74518553955385559555855374C
:1033D0005D3665995DBB5D9A4D184CD74CF75D59CC
:1033E0007DB4E604FD80F7038DF16579F763FE8116
:1033F000FD20C649759765385CF754B64C964C76F7
:10340000443464D3C6A9FEE1FD40FCC0FCE0FDC02D
:10341000FF21FE81FCE0FE60FE80FD20FC00F3E069
:10342000FD60FCC0FCE0FD20FCE0FCC0FE00B64AF4
:103430005D355D376DB875F97DF97E3A7E3A7E3A35
:103440007E3A865A8EBC96BD53B019666D5764F5A8
:1034500029A7428A7431B596FED7FF16DDB2DDD2B8
:10346000FEF6FED6FEF6EE14B533B553E5F3E5F2FF
:10347000FE33FE13CC6E69A49AA88A6671A5D4EFB8
:10348000FEB6D5D3D614A42FE4F3B0006062616415
:1034900060C2AB8AEDF2FEF7FEB6FED6FED6FED6D1
:1034A000FEB6FE95FE95FEF8838D8A46D44CF675E1
:1034B000FED6FEB6FED8FF7BA51342CB7598763AB2
:1034C0006DDA3CD644F755385538555955595D375E
:1034D0005D16659965DB5D9A55184CF84D185D5978
:1034E00085D3EDE3FDA0E7047DD35D59FF22FE40C7
:1034F000FD00CE49759765385CF754B64C955496E7
:103500004C555C949DEDF723FDA0FCA0FCC0FD2074
:10351000FE61FE41FCC0FE20FE80FD40FC60FC2000
:10352000FD60FCE0FCE0FCE0FCC0FCC0FDE0BE890E
:103530005D555D376DB875F97E19863A865A865A9B
:10354000865A863A96BD963A29C85C116DD853D0F2
:103550003A095BAF8493B5B6FF17F6B5BC6EEE3390
:10356000FEF6FED6FEF6B4B0B554CD93FEB5FE54CD
:10357000FE13FE13ABAB71C59AC88A6679E6D4EF29
:10358000DD9360C2514482A9D34DB8006862BBACE0
:10359000C40CCC6DFE74FED7FED6FED6FED6FEB6AB
:1035A000FEB6FE96FE95FED7B55369E5CBECF61355
:1035B000FED6FED6FEB7FED7FF7BC5F742EC7DB840
:1035C0006DDA3CB644F74D384D3855595559553894
:1035D0005D3765B96DFB65BB55394D1855185D7A7A
:1035E00085F3EDE3FDA0DEE675D45D79FE20FDC038
:1035F000FD00CE4875B765385D1754D64C9554B666
:10360000549554957D51DEE5FE60FC80FC80FCA065
:10361000FD80FDA0FCC0FE00FE60FD40FCA0FC2083
:10362000FD40FCE0FCE0FCC0FCC0FCC0FDC0C68866
:1036300065545D376D9775D87E19865A865A867B94
:10364000865A865B9EDD53904B6F75B86D973A8BAB
:1036500053AF5BF09515B5B6CE16624782E9FED73B
:10366000FED6FEF7CD72A4B1B4F2FEB6FE75FE33FF
:10367000FE13FDF38AA879E69AC88A468247CCEF02
:10368000A2CA980068205040B821B80068A2CBEBCD
:10369000DC2BD46CE550F613FEB6FED6FED6FEB695
:1036A000FEB6FEB6FE75FE95DE565A07C38BED914B
:1036B000FED6FED6FED6FED7FEB6FF5AC5F74B4E57
:1036C0006DBA34963CB64D184D1855395559553884
:1036D000553765996DFC65BB5559553955385D7A37
:1036E00085F3EDE3FDA0DEE76DB55D79FD20FD20FE
:1036F000FCC0DE477DD665595D175CF754B654B6FD
:1037000054B654B564F3BE89FEE1FCA0FC20FC4035
:10371000FCC0FD20FCA0FDC0FE41FD60FCC0FC0023
:10372000FD00FD00FCE0FCC0FCC0FCA0FD80CEA7BD
:103730006D5365376D9775F97E3A865A8E7B8E9BF1
:103740008E9B8E9C7D575BF1865A6DB864F52A2955
:1037500085D853D0ADD8849273F06289630AE67538
:10376000FEF7E615940F9C90EE76FEB6FE75FE34DD
:10377000FE13ED7172068A269AC8928792A8BCAF92
:10378000A34CC18698005021A841A0217164D42C7B
:10379000D40CCC2CCC0BCC2CD4CEEDD3FEB6FED698
:1037A000FEB6FEB6FE96FE95FEF87B2BB329E530FD
:1037B000FEB6FED6FED6FED6FED6FEB6FF7B9D1426
:1037C0004C1334B63CB64D184D184D1855384D179E
:1037D0004CF665786DFB65DB5559553855385D7A83
:1037E0008DF3EDE3FDC0DEE76DB65D79FCC0FCC195
:1037F000FCA0E60685D5655965385D175CD75CD7B2
:103800005CF75CD65CD595EEF743FD60FBA0FBC092
:10381000FC41FCC0FC80FDA0FE21FD40FCA0FBA003
:10382000FC80FCE0FCC0FCC0FCC0FC60FD20DEA60F
:10383000757365566D9775F97E3A865A8E9B8E9B89
:103840008E9B969C6D16969B865A6DB843B053B16D
:103850008E9B5BF1B639EFDFCF3D62C963CED635C3
:10386000E6558B8C940FDE55FEF6FEB6FE75FE34E3
:10387000FE34C48F69C5926692C89AA79B08B46E3D
:10388000BD12DB8DA00058A370E36040A309D42CC7
:10389000D40CD42CD40CD40CCC0BCC0CDCEFFE759B
:1038A000FED6FEB6FE96FE95FED7AC908A87CCD0AB
:1038B000FED6FED6FED6FED6FED6FED6FED7F75BE9
:1038C0005B8F34743CB64D184D1844D74CF744D632
:1038D00044B55D5865FB65BB5D794D1855185D7A3B
:1038E0008DF3EDC3FDC0DEE775B55D59FCA1FCC0ED
:1038F000FC60EDE58DF56D7965385CF75CF75D177B
:103900005D1764F75CD77552D6E6FE40F3A0FB0066
:10391000FB60FC60FC60FD80FE01FD40FCC0FBA084
:10392000FC00FCE0FCC0FCC0FCC0FC20FCA0E6A548
:103930007D9265576D9775F97E19865A8E7B8E9BA1
:103940008E9B8E9C96BC8EBC865A6DB84BF17D9832
:10395000867B6452BE5AEFFFB67A62895C525B4C3A
:1039600052488BADE655FEF7EE34EE55FE75FE542B
:10397000FE54932A7A069AA792A79B087A467AC899
:103980009A89C966A8006924B3ABAB4ACC2CD40B86
:10399000D42BD42BD42CD40CD40CD40CCC0BCCAE38
:1039A000F675FEB6FEB6FE95FEB6CDB440E359A65A
:1039B000F696FED6FED6FED6FED6FEB6FE96FF39AB
:1039C000B5952B703CB64D184D1844B744B73C968E
:1039D0003C74553765DB65BB5D7A4D184CF75D79F6
:1039E0008DF3EDC3FDC0DF067DD45D78FC41FC6046
:1039F000FBE0F5C48E13655965385D175CF75D17FC
:103A0000653764F85CD66D33B66AFF01F460FA80FE
:103A1000FA80FBC1FC20FD60FDC0FD20FCC0FBE086
:103A2000FB40FCA0FCC0FCC0FCC0FBA0FC60EEC3E3
:103A300085D16D776D9875D97E19863A8E7B8E9B70
:103A40008E9B8E9B8EBC96BC867B6DB8653675D979
:103A5000865B6CD5BE7AF7FF9DD762685CF55C9398
:103A600063B0EE97FEF6FEB6DD10F675FE96FE53D9
:103A7000EDF26A275984828792A8822660614041CC
:103A80007061C000A0017164D44DD44CCC0BD40C37
:103A9000D42BD42CD40CCC0CCC0CCC2CD42CCC0BC8
:103AA000D4CEFEB6FEF7FEF7FEB6E67638C6300593
:103AB0009BEFFEF7FEB6FED6FED6FEB6FEB6FED6EF
:103AC000EF1A434F34964D174CF744B63C963C756D
:103AD0003454551765BA65BB5D9A553955185D590B
:103AE0008DF3F5C3FD80EF238E1065B6FC20FC003E
:103AF000FB40F58396326538655865175D17651884
:103B0000651765175CD56D139DEBF723FD80F2609B
:103B1000F9C0FAA0FBC0FD40FDA0FD00FCC0FC40C8
:103B2000FB20FC20FCC0FCE0FCC0FB40FC40EEE3C2
:103B30008E116D776DB875F97E19863A8E7A8E9BE7
:103B40008E9B8E9B8EBC96BC8E9C75D85D3675D92F
:103B5000865B6D37BE9BEFDF84F46288653675D86F
:103B60007CD4EEDAFF18E591DCEFFEB6FE95FE752B
:103B7000BC8F4942AC259345820670E3B021702189
:103B80005041B04188008A67DC2CCC2CD44CCBEC63
:103B9000BBABD42CD42BD42BD40BD40CD40CD40C42
:103BA000CC0BE5729BAF8B2DEE76DE5648A938081C
:103BB00059C9FED6FED6FED6FED6FEB6F675EE5432
:103BC000FF5A8CD433D34D1844D73C9644B7345560
:103BD0002C344CF6659A65BB65BA555955395D5A12
:103BE0008DF3EDE3FD40F701BEAA85F2FBE0FBA0FB
:103BF000FAE0FD619E506537653865385D176538B8
:103C0000653865375CF57571A60BDF05FE80FB0036
:103C1000F9A0F9C0FBA0FD40FD60FD00FCC0FCA0C8
:103C2000FB80FBA0FCC0FCE0FC80FAA0FC40F7029B
:103C30009E306D976DB875F97E19863A8E7A8E7BB7
:103C40008E9B8E9B8EBC96BC8EBC6DB85D166DB87F
:103C50007E3A75D9BEDCE7BF73F062EA657775D846
:103C60006D3573F0838CC42CEDD2FEB5FE75FE75F8
:103C700093AACC63FDE2D50581E58A69C965900008
:103C80004882688160C2BBEBD42CB38A928792676A
:103C9000AB28D3ECD3EBD40BD40BD40BD40CCC0C7F
:103CA000D42BBBCC60EC588D69AB722B586C3809A7
:103CB0004928F675FED6FED6FEB6FEB6F675CD716F
:103CC000FEF7D6583B7155384CF73C9644D73455DF
:103CD0002C1344B55D7965BB65BB555955395D59A4
:103CE0008E13EDE3FD00FE80EEE5B62CFB60FB20BD
:103CF000FAC0F500AE8E6577653865385D176538B2
:103D00006D78653864F39E0CCE87CEC6FF02FC202A
:103D1000F9A0F9A0FBC0FD40FD20FCE0FCC0FCC008
:103D2000FC20F3A0FCA0FCE0FBE0FA00FC01FEE2BA
:103D3000A66E6D976DB875F97E19863A8E7A8E9B50
:103D40008E9B8E9B8EBC96DC8EBC6DB854F56D98A8
:103D50007E1A7E3BBF1DCF5E6B2C634D657875D898
:103D60007DF9753573AFCC4DFE95FEB5FE96D593B6
:103D7000BD25FD61FD00BBC371C5B4F3DB4C9800EC
:103D80006123ABABBBEBC40C8A878AA7BC2DD510D3
:103D9000DD50E530E531DD30D50FDCAED46ECC4DF5
:103DA000CC2CA34A70AE80B2708F688E688F4009A9
:103DB0004907F635FED6FED6FEB6FEB6FEB6C530CF
:103DC000FE95FF19641155174D1844B744D7343583
:103DD0002BF344955D5965BB65BB5D5955395D59FC
:103DE00085F4EE04FCE0FDA0FE41D627FB00FAC0FE
:103DF000FA80FC80C68B6D97653865385D1765382D
:103E00006D5865577D30D687F6C3C6A8EF24FD40B0
:103E1000F200F980FC01FD20FCE0FCC0FCC0FCC00D
:103E2000FCA0FC40FCA0FCA0FB00F9C0FB80FE4114
:103E3000B66C6DB66DB775F87E1986398E7A8E9B25
:103E40008E9B8E9B8EBC96DC8EBC6DB854D46577F1
:103E50007E1A7E3AB6FCB6FC62A863F06DB875D9DE
:103E6000861A8E9C74B3D572FEF6FEB6FEB7A44BCE
:103E7000EE83FD40FCE0A32458E289E8C965A00078
:103E80006903D46CBBEB7A25AC0CF654FED6FED697
:103E9000FEF6FEF7FEF7FEF7FED6FEB6FE96FE75C0
:103EA000F633D571710C8092809178917090482A88
:103EB0005106DD51FED6FED6FEB6FEB6FEB6CD717B
:103EC000EE34FEF7A5334C95553944D74CF82C14F5
:103ED00023D34495551865BB65BB555955395D5974
:103EE0007DD5E625FCE0FD00FD80D607FAC0FA800E
:103EF000FA60FC20DE687DD6653865385D17653868
:103F000065586D36A5ACF6A3FEA0BE89D6E7FE20A7
:103F1000FAA0F9A0FC40FD20FCE0FCE0FCC0FCC0E5
:103F2000FCA0FCA0FCC0FC40FA60F9A0FAE0FDA0F7
:103F3000C68B75B66DB775D87DF88639867A8E9B37
:103F40008E9B8E9B8EBC96DC8EBC6DB84CB4655738
:103F50007E197639A6DCA659626664B36DD975F907
:103F6000863A865B7D76CE14FED6FED7C594ACC568
:103F7000FF01FD40F4C192A580A28821C0009801F4
:103F800071A5AB6A69A5C4AFFED5FEF6FEF6FED7F5
:103F9000FEB7FED6FED6FED6FED6FED6FED7FED69F
:103FA000FED6FF177A6D7891809178917890582C91
:103FB0006167D48DFE95FED6FEB6FEB6FEB6DDB3C5
:103FC000DDB3FED6D6364C1355594D184CF8343463
:103FD00023B23C754CF765BA65BA553855385D590A
:103FE0006DB5D627FD00FCE0F5C2BE2BFAA0FA6045
:103FF000FA40FBA0EE458E13653765385CF7651710
:1040000065797D54CE07FE60FEC0BE8AB66BFEA108
:10401000FB60F1C0FC80FD20FCC0FCE0FCC0FCA00B
:10402000FC40FCA0FCC0FBA0F9E0F9A0FA60FD2078
:10403000CEAA75B675B875D87DF98639865A8E7B45
:104040008E9B8E9B8EBC96DC8EBC6DB84C945D3680
:104050007E197E3A9EDB8D756A87653675F97DF926
:10406000863A865B7DB8BDD5FEF6EEB89469EEC3A0
:10407000FE80FD20DC42824699249020A0618021B0
:1040800061656144C44EFEB6FED6FED6FEF6FED68F
:10409000FED7FED6FED6FED6FED6FED6FED6FED67F
:1040A000FED6FF17AC70588C70D070D070B0604ED8
:1040B0007208D44CEE13FED7FEB6FEB5FE95EDF4B5
:1040C000C511FE95F6D7643255394D384D18345523
:1040D0001B9234344CD765BA65BA551855185D39FA
:1040E0006576BE2AFD80FD80DE669611FAE0FA60F4
:1040F000FA40FB40F5E2A66F655665185CB7651897
:104100006D789591EE04FE40FEC0AE6C95EFEEE347
:10411000FC20FA00FCA1FD20FCC0FCC0FCC0FCA0FF
:10412000FBE0FC80FCA0FB00F9A0F980FA00FCE0B9
:10413000CEA975D675B875D87E198639865A8E7B04
:104140008E7B8E9B8EBC96DC8EBC6DB844735D36C8
:1041500076197E3A8EBB7C5062E96D9875D97DF9EF
:10416000863A865A85D8B595FF5A844FC627FF21CF
:10417000FDC0FD00C363932ADC919820502048E2E3
:1041800051659B2BB3EC9B6AABCBDD71F675FED60C
:10419000FED6FED6FED6FED6FED6FED6FED6FED67F
:1041A000FED6FEF6F69682CD5149512950E9606D52
:1041B00071AACC2CE591FED7FEB6FEB5FE95F6555C
:1041C000B4AFFE75FED68CD34CF7553955193C96D5
:1041D00023D32BF344965D9A65BA551855185D386C
:1041E0006576AE4CEE63E665A64E6DB5FBC1FAA0F2
:1041F000FA40FAE0FD41C68B6D965D175495655700
:104200006D97ADEDFDC1FE20FEC0A62C7570DEC41D
:10421000FCE0FA60FCC1FD00FCC0FCC0FCC0FCA0DE
:10422000FB80FC40FC80FA80F980F980F9E0FCC05A
:10423000D6C875D575B87DD87E198639867A8E7BB5
:104240008E7B8E7B8E9B96DC8EBC6D984C946556D7
:104250007DF9863A863A730A63AD6DB975D97DF9F1
:10426000861A865A967A742F6BCE7CF1E748FE4008
:10427000FD00FCC1A2C48A89D38EB00158613944C3
:1042800038C24103308159A58AC98267B40CEE1344
:10429000FEF6FED6FED6FED6FED6FED6FED6FED65E
:1042A000FED6FED6FED7F6F8EE77E635CD73610C76
:1042B00058CAC3CBDCEFFEB6FEB5FEB5FE95FE7563
:1042C0008B4BF634FEB5B57344955539553944B723
:1042D0002C1423D33C755D9A65BA4CF85518555784
:1042E0006DB3B68BDEC6B66C7DD45D98FC80FAE00B
:1042F000FA40FAA0FC80DE6685D35D175CD4757643
:104300007D94CE09FD61FE40F6C19DEE6531CEA5DE
:10431000FD80FAE0FCE0FD00FCC0FCC0FCC0FCC07D
:10432000FB80FC00FCA0FA40F980F980FA20FD0037
:10433000CEC97DD675D87DF87E198639867A8E7B72
:104340008E7B8E7B8E9B96DC8EBC6D984CB4657795
:104350007DF9867B7DB8724764726DB975D97E1A16
:10436000861A865A969AA6358DB59E96E706FDA0C2
:10437000FCE0E48282257082B842B021502049647A
:104380008AA99AE992A869C571E6B3AD92C7A34814
:10439000EDF3FEF7FED6FED6FED6FED6FED6FED650
:1043A000FED6FED6FED6FED6FEB6FEB5FED6828E72
:1043B000504B9B09D48DFE95FEB6FEB5FE75FE955D
:1043C000834AD571FEB5DDF454135539555944F778
:1043D000345523D334355D7A5D9A4CF84D186556C3
:1043E0009E2EE726E7249E4E6D975D79FD40FB20CB
:1043F000FA41FA80FC00F5E2A62E6516753295D2D8
:104400008DB0DDC5FD00FE60F6C38DD06D30CEC52C
:10441000FDE1FB40FD00FD00FCC0FCC0FCC0FCC099
:10442000FBA0FBE0FCE0FA60F9A0F9A0FA60FD60F7
:10443000CECA7DD675D87DF87E198639867A8E7B70
:104440008E7B8E7B8E9B96DC8EBC6D9854F56DB802
:104450007E19869B7CD36A476D176D9875F97E1A15
:10446000861A863B9679AED5A6D6A694EEE5FD20B3
:10447000FCE1C3A3820680A3B04188217207DD92CC
:10448000F654D4AED42CCC2CA32A8247C42DB369C5
:10449000C44CFE96FED7FED6FED6FED6FED6FED67F
:1044A000FED6FED6FED6FED6FEB6FE95FED6AC50A5
:1044B000504B79E8D44CF634FED6FEB5FE95FE9608
:1044C0009BEDB44DFE96F6555B6F4D1855594CF863
:1044D00034552BD32C145D7A5D9A4CF855177DD149
:1044E000D707FF22FF02A66D65975D59FE00FB808E
:1044F000FA41FAC0FC40FD60BE4A6D558D4FC5EBD8
:10450000B62CED84FD00FE60EEA485B0856CE7035B
:10451000FDE0FBA0FD40FD00FCC0FCE0FCC0FCC0D9
:10452000FBA0FBC0FD81FB40FA40FA00FB20FE012E
:10453000C6CB7DF775D97DF87E198659867A8E7B34
:104540008E7A8E7B8E9C96BC96BC6DD95D366DD86E
:104550007619867B738D6B0A6D986DB875F97E1A26
:10456000861A863B967AB6B4B6D1B6B2F684FCE02B
:10457000F4C29AA4A36CA165680071E7EEB7FF17B7
:10458000FEF6E591CC0BD40BD44DB38A8A87CC2CA4
:10459000D40BED92FEF7FED6FED6FED6FED6FED6A4
:1045A000FED6FED6FED6FED6FEB6FE96FE95DDD42F
:1045B00058EC58E8C3EBEDB2FED6FEB6FE95FEB65B
:1045C000B48F9B4AFE75FEB6630B449555594D1842
:1045D0003C762BF42C145D7A5D9A4CF75D36AE6C0C
:1045E000F722FE40FE81BE8C65985D59FEA0FC401E
:1045F000FA80F2E0FC60FD40CE4875749D8EE604C2
:10460000D667F542FD00FE80E6A57570A60AFF425A
:10461000FDE0FBA0FD41FD00FCC0FCE0FCE0FCE097
:10462000FBC0FBA0FE41FCC0FB80FB20FC20FE8108
:10463000B6AD7DF875F97DF97E19863A865A865BA6
:10464000865A8E7A8E9B96DC8EBC761965576DD80D
:104650007E1A861A6AC864306DB86DB875F97E1A0C
:10466000861A865B967AAEB3C6EDC70EF683FCE07B
:10467000D42382258144B86248A2CDF6FF18FED625
:10468000FED6EE13D40CD42BD42BD44CAB4AA32897
:10469000D40BD4AEFED6FED6FED6FED6FED6FED6C1
:1046A000FED6FED6FED6FED6FEB6FE96FE95FEB62B
:1046B0007A4D506AAB2AE530FED6FEB6FE95FE96E0
:1046C000CD108A88F613FED68B4B3B705D5A4D1881
:1046D0003CB62C142C1455595D994CD76D72D707E4
:1046E000FEA0FD40FE20C6AB65966578FF00FD008C
:1046F000FB40FB80FD21FDC0DE2775939DCDF6219B
:10470000F682FCE0FCC0FE80CE877531BE67FF00FC
:10471000FD60FB60FD21FD00FCC0FD00FD00FCE034
:10472000FC01FB80FEC0FE40FCC0FC60FD20F6E307
:104730009E918639861A7DB785F9867A8E9B8E7B07
:104740008E7B8E7B8E9B8EDC8E9C7E3A6D9875D98F
:104750007E5B7D146A676D566DB875D875F97E1AE3
:10476000863A8E5B8E5AA694CEEAD72AF662FCC1B0
:10477000AAE489E6804198008B8DFF5AFED7FED7C8
:10478000FEF7F674D42BD42BD42BD40BCC2CC40C26
:10479000D40CCC4DF675FED6FED6FED6FED6FED691
:1047A000FED6FED6FED6FED6FEB6FEB6FE96FED5EA
:1047B000AC10502C8229DCCEFEB6FEB6FE96FE76FC
:1047C000E5927A47E551FEB6B40D4A8B5519553935
:1047D00044D734352C1555385D794CF78DEEF722DA
:1047E000FDC0FCE0FE20BEAA657675B5FF21FDE0A8
:1047F000FC80FD00FE60FE60E6257DB19DCEFE6181
:10480000FE20FCA0FC80FE40C6696D32CE87FE60B3
:10481000FCA0FAE0FD21FD20FCC0FD81FD80FCC074
:10482000FC01F360FEC0FF41FE20FD80FE42D6E9A0
:10483000753054315C515289638E7D966BCF5B0B22
:104840005B4D7CD3969B96BD8E9C863A75B875F968
:10485000867B73AD6B2B75D96DB875D976197E3A99
:10486000865B8E5B8E3A9656D6CAEF26FE81D3E2E1
:104870008A259AA990C360E3E698FEF7FED6FED794
:10488000FEF7F6B5D46DCC2CD40BDCCFD4AECC0B6C
:10489000D40CCC0CEDF3FED6FED6FED6FED6FED65C
:1048A000FED6FED6FED6FED6FED6FEB6FE96FEB5E9
:1048B000DDB360AC5929CC4DFE55FEB6FE96FE76B2
:1048C000EDF27A67DCAEFE95CC8E62695476555A6D
:1048D0004CD83C5634554D185D7A5D36B66AFEC1EB
:1048E000FD20FCC0FE80BECA65978E11F744FEC055
:1048F000FE00FEA1F763F703EE6385CF95CFF6A226
:10490000FDE0FC60FC80FE21B62A6533CEA8FE00E7
:10491000FBE0FA20FCC1FD80FCE0FDE1FE00FCA014
:10492000FBC0FB60FEA2D725EF03F6C2E6A58448D4
:104930008CD16B8E41A6598459A55A067A66824558
:1049400082657226630C963A9EBD865A75F97E1A68
:1049500085D86A68749375F96DB875F97E1A7E3AD0
:10496000865B8E7A863A8E36D6AAFF22FE82A2C453
:10497000920589248841940FFF3AFED6FED6FED6D2
:10498000FED6FED6B3CBB38AD40BE551FE75D44C1C
:10499000D40CD3EBE550FED7FED6FED6FED6FED61F
:1049A000FED6FED6FED6FED6FED6FEB6FEB6FE96E7
:1049B000FEB67A0D4869AB6BF614FEB6FE96FE7530
:1049C000F6348288CC0CFE54DD0F92E9536F5D59AA
:1049D00054F83C963C7655395D9B7574D6C5FE00FF
:1049E000FCA0FCC0FEA0BECA7DB4BE6BD6EAF743F5
:1049F000FF22F744CEEAD6C9EE849DED95CEF6C2ED
:104A0000FDC0FC80FCC0FE619DEC5CF3C689FE200D
:104A1000FB60F9A0F420FE01FD40FE00FE81FCC019
:104A2000FB60FB40EE83AEACBEABD6E994C9CE973B
:104A3000FFFDFFFDB4F16A6749437A265A475AEBF6
:104A400052896246826662AA961B865B75F9863B2E
:104A50007C726A8885D975F975B875F97E1A861AD7
:104A6000865B8E7A861A8617CE8BFF21D5848A655F
:104A7000A9A3A9416945E6DAFED8FED7FED6FEF61F
:104A8000FEF6DDF382A8BBABD40BD4CFFEF7EDD29C
:104A9000CC0CD3EBD4CEFED6FED6FED6FED6FED6BA
:104AA000FED6FED6FED6FED6FED6FEB6FEB6FEB6C6
:104AB000FED79BD0502A8248EDB2FEB6FE96FE95F8
:104AC000FE34A34AC3EBF5D2E52FAB297B6D54D658
:104AD000553944B73C764D195D9A85D2EEE3FD40D9
:104AE000FC20FCC0FEA0C6E89E2EDE46A671CEEAE3
:104AF000D728C6EB9652AE8FEE84B60A9E0DF6C24C
:104B0000FDA0FCA0FD40EE838D6E5CD4AE4AFE811C
:104B1000FB80F1A0F300FDE2FE01FDE0FEC0FD2000
:104B2000FB00F300EE839E518E33852DAD72FFFDA9
:104B3000F7BCFFDCEF7B8BCC498549A57C518E7B94
:104B40008E39857662CA824662AA7D9775F97E1A89
:104B50006AEA73EE867B75D975B875F87DFA861B9F
:104B6000865A8E5A7E197DF7C6ACF6E39B658A2578
:104B7000DA21C2629C71FF59FED7FEF7FED6FED63F
:104B8000FEF7A42E8AC8D42CCC0CDD30FED6FED67F
:104B9000DD0FCC0BCC6DFEB5FED6FED6FED6FED616
:104BA000FED6FED6FED6FED6FED6FEB6FEB6FEB5C6
:104BB000FED6D594588B5928DD2FFEB6FE96FE758D
:104BC000FE54AB8AC3CAED70E530B348BCF053F273
:104BD0005D5944D7347644D865BA9E2FFEC2FC8016
:104BE000FBA0FCC0FE40DF26D687FDA286369E5283
:104BF000A67196337DF79E51EEA4CE27AE4CF6A259
:104C0000FD60FD00FE01D667751054D595ECFEC120
:104C1000FC20F9E0FA00FC60FDA1FDC0FF00FDA052
:104C2000FAE0FAE0EE648E336D3463ACF79BFFDCA0
:104C3000F7BCF7BCFFDDB55272A85ACB6AC97DD765
:104C40007E198E7A8E5A632B824662EA75D874B4C6
:104C500062478575865B7DF96DB875F97E198E584A
:104C60008E9896797DF97DF8C6EFB4A58A65AAC3BA
:104C7000FB619B07E6DAFEF7FEF7FEF7FED6FED7EE
:104C8000EE7682C9B3ABD48EEDD3FED6FED6FED778
:104C9000F675CC6DCC0CF654FED6FED6FED6FED6FE
:104CA000FED6FED6FED6FED6FED6FED6FEB6FEB6A4
:104CB000FEB6F6B66A0C3866A3ECFED7FE95FE7516
:104CC000FE54B3CBBBAAE4EEE530BB8ADD928C93F5
:104CD0005C9644F834763CD865B8B6ACFE40F3A098
:104CE000F380FCC0FDA0FF02F682FCC075F885F7DA
:104CF00086167DF775F89E52EE83EE04C6A8F6611F
:104D0000FD40FD80E665A5CD5CD25CF2858DEEE4CC
:104D1000FDA0FB00F9C0F2A0FC20FD60FEE0FE401B
:104D2000FB40FB00EE848E33649294B1EF7BF7DCA2
:104D3000F7BBF7BBF7DCD6577AE86BAE6AC96BCE28
:104D400086398E39969B967B632C7A465B2D62EB77
:104D50006B4C8E5B863B76196DD875F98637A693BA
:104D6000B6B19E957E187E18A5F08AA592E4F4E26D
:104D7000D382ACD1FF7AFED6FEF6FEF6FED6FEF763
:104D8000C5108AC8DD31FE95FEF7FEF6FED6F69612
:104D9000FEF8EDD3CC0BEDD2FEF6FED6FED6FED657
:104DA000FED6FED6FED6FED6FED6FED6FED6FEB683
:104DB000FEB5FF17726D30273043832CFEB6FE75AB
:104DC000FE54C40CBB8AD48DDCEFCBEBE530E69807
:104DD00053B14D1834963CF86DB7C6E9FDA0FAE022
:104DE000FBA0FCC1FD20FDE0FD80FC8075F97DF895
:104DF00075F875F875F99653EEA4F601DEC5FE2137
:104E0000FD60FE00C648753164D1858D95CBD6A670
:104E1000FEC1FCA0FA80F1C0FB20FCE0FE60FE8039
:104E2000FBC0FB40EEA48DF184D3C637DEF9FFFD55
:104E3000FFDCF79CF7DCDEB982E87BEE74316A2791
:104E400085139E7796788EBC965A630B7A6651844A
:104E50007D15867C863A7E196DB875F89E74D6AB42
:104E6000E688C68E86358DD67B098A45CD44FDE120
:104E7000A365E6DAFEF6FED6FED6FED6FED6FED652
:104E8000AC6DE5B3FED6FEF6FEF7FED6FEF6CDB26D
:104E9000DE55FEF7DCEFDD50FEF7FED6FED6FED681
:104EA000FED6FED6FED6FED6FED6FED6FED6FEB682
:104EB000FEF6A42F508A588D38282825B4B0FEB6A7
:104EC000FE54D48ECBEBD42CD48DD3EBE4CEFF3870
:104ED00084B34C753CB644F975B6DEE6FCE0FA40A6
:104EE000FBE0FCC0FCE0FD00FCE0FCA075F975F9FE
:104EF0007DF97DD975FA8635DEC8F640EEE2FDE033
:104F0000FDE0FE61A5EC5CD2854ECEA8D686C666D5
:104F1000EF23FE61F3E0FA00FAA0FC80FD80FE6161
:104F2000FC40FB80EEA495D06B6DBDB5E73AC6366C
:104F3000CE57F79CF79CD67882C883CC7DB76B0B95
:104F400072C9A6139EB796BB96DD857661E47A2575
:104F50006BF08E5B7E1A7DFA6DB87DF7B66FEE430F
:104F6000F5C0E646AE726B4B7A45ABC4FEA2E5C215
:104F7000A46FFF5AFED5FED6FED6FED6FED6F69517
:104F8000E613FEF7FED6FED6FEF6FED6FED6EE966B
:104F9000ACCFCDF4FE75D52FFED6FED6FED6FED60E
:104FA000FED6FED6FED6FED6FED6FED6FED6FED760
:104FB000E655614B7090686E4009300759E9FE95DF
:104FC000FE54DCADD40BD40CD40CD3ECDC8DFEB68B
:104FD000DE9853B04CF744F87DD4EEC4FC20FA20A0
:104FE000FC20FCE0FCC0FCC0FCC0FCE07DF87DF9CE
:104FF0007DD975F975F97E17BEABF6A1F6C0FDE057
:10500000FE40F6A2958D54B2AE2AFEC3FE82CE6556
:10501000BE86EF03FDA0FAC0FA20FC20FD00FE21B1
:10502000FCC0FBA0F6A47CAC41E8BDD6AD73949166
:10503000840EC5F6CE77B5B5728793AB7DB67D95F8
:10504000626772C7951095D68535630B5206624725
:105050007A666C10865A7E1A6DB87DF6C66CFE8133
:10506000FE00EDA483A87A469364F604FE40B504DE
:10507000CE38FF17FED7FED6FED6FED6FED6FED61B
:10508000FED6FED6FED6FED6FED6FED6FED6FEF75F
:10509000C5B3A4AFEE96F614FEB6FED6FED6FED687
:1050A000FED6FED6FED6FED6FED6FED6FED6FEF73F
:1050B000BCD2688F7891686F402938083866D572FD
:1050C000FE75DC8DD40BD40CD40CD40BDC6DFE55EA
:1050D000FF1884714C7445188613EEC3FBA0FA4088
:1050E000FC40FCE0FCE0FCC0FCC0FD2075F975F95B
:1050F00075D875F875F975F89E4FE6E4FEC1FDE0C8
:10510000FE80F6E28D8D5CB1C6A7FE40FDA0E68470
:105110009DE9BE68FEA2FC00FA20FBE1FCE0FDA0D8
:10512000FD20FBC0F6A4632762ECCE58CE77FFFFCC
:10513000FFDD94B0AD538C90838B9B8A7D55867A2E
:105140007CD26A456A456A676A275A276C516C7235
:105150007226824663AE861975F98617BEB0F74986
:10516000E6058A838A668305EE25FD80F5C19CAA43
:10517000F73BFED6FEB7FED6FED6FED6FED6FED650
:10518000FED6FED6FED6FEB6FED6FED6FED6FED69F
:10519000F6B7A48EC572FED7FEB6FED6FED6FED6F4
:1051A000FED6FED6FED6FED6FED6FED6FED6FF171D
:1051B0009B6F78507890686F480A40083007AC2F92
:1051C000FE75DC8DCC0BD42BD40CD40BD44CF63424
:1051D000FE96DE574B8F4D388E32F682FB40FA60DA
:1051E000FC60FCC0FCA0FCC0FCE0FDC075F975F9DA
:1051F00075D975F975DA75D89610DEE5FE81FDE191
:10520000FE80FEE29DCA74EFD6C5FDE0FCC0F6024A
:10521000A5E9856EDEE6FD20F240FBA0FCC0FD4066
:10522000FD41FBE0E6035205B555EF3CC637630C84
:10523000C617B594842FCE98B5738B497D14863AE2
:105240009658AD6E8B656AE862EB749375FA75D902
:105250006C116A4682465A8964107D138CEE8BC7A6
:105260008244926782A5DE47FDE1FD00E502AD3292
:10527000FF5AFED6FEB7FED6FED6FED6FED6FED628
:10528000FED6FED6FED6FEB6FEB6FED6FED6FED6BE
:10529000FEF7CDD39C8EE675FED6FED6FED6FED6A4
:1052A000FED6FED6FED6FED6FED6FED6FED6FF171C
:1052B0008AAE78707890686F480A400830077A8C18
:1052C000FE75D46DCC0BD42BD42CBB69CC0BF61251
:1052D000FE95FF197C514C959670FE62FB00FA809A
:1052E000FCA0FC80FC40FCC0FD00FE6175F975F976
:1052F00075F975F975D97E17BE2DF684F5A0FDA157
:10530000FE80FE41CE269DCAE704FE00FC40FD0063
:10531000B6076511AE29FE01FAA0FB80FCC0FD00B6
:10532000FD41FC40BCC352688C51AD3431A5000036
:105330003186D6996B6CDEFAC6368B497D14861A97
:105340008E18C66EE648AE95967B861975B86D992F
:105350007DD974F45A47724672666A457A658A87BF
:105360008A658A23DD44FF03FD40FCE0C424CE5857
:10537000FF18FED6FED6FED6FED6FED6FED6FED64A
:10538000FED6FED6FED6FEB6FEB6FEB6FED6FED6DD
:10539000FED6F6D7ACD0CDB2FED6FED6FED6FED621
:1053A000FED6FED6FED6FED6FED6FED6FED6FEF73C
:1053B000824F787178907070482A380838085149BF
:1053C000F614D46DD40BD42BD42CB369CBEBEDB144
:1053D000FEB5FEB7D6584BB09E6FFE22FAC0FA80DB
:1053E000FC81FBC0FBA0FCC0FD60FF0175F975F9F5
:1053F00075F975D975D89E72EDC6F560FD20FDA0D2
:10540000FE81FD40EDC2DEA5F742FE00FC40FC003F
:10541000D6055D317D6CF684FB40FB20FCC1FCC0F1
:10542000FD40FC80A4069D13AD54C61641E7000064
:105430000000CE58BDF6CE78DEB89BAA751386392B
:105440008637BE6DE604B6D2967B7DF975B76DB72B
:1054500075B9865A7DD863EF5A676A2562255A87DF
:105460009CA8F563FD21FEE2FD80FCC0ABE8EF3AAD
:10547000FED6FED6FED6FED6FED6FED6FED6FED68C
:10548000FED6FED6FEB6FEB6FEB6FEB6FED6FED6FC
:10549000FED6FEF7DE35BCCFF654FED6FED6FED6DF
:1054A000FED6FED6FED6FED6FED6FEF6FEF6FEF7FB
:1054B0007A0F787178917090502A380838084087B0
:1054C000DD51DC6CD40BD42BD42CB36ACBEBE55080
:1054D000FEB5FE75FF1A74119DCCFE02FAA0FA60AB
:1054E000FBE1FAE0FB60FCE0FDE0E72475F975F90B
:1054F00075F96DD97DF7BE6DFCC1FD60FD40FD8085
:10550000FEA0FCC0F4A0FE61FF00FDC0FC60FB60DB
:10551000EDA46D515CF0DE86FC00F2C0FC61FC4045
:10552000FD00FCC193A8CE98EF5BF7BCCE585AAAF9
:105530007BCEF79CA533B5D5DEF99BCA7D55863960
:105540008618BE8EF5C2BEAF8E9B7DFA75B76DB75D
:105550006DD97E397E1A863A8DF48D94859796386A
:10556000CF2CFD80FCC0FEE2FE00F4A0AC6DFF5A23
:10557000FEB6FED6FED6FED6FED6FED6FED6FED6AB
:10558000FED6FED6FEB6FEB6FEB6FEB6FED6FED6FB
:10559000FEF6FED6E634AC4ED4AEFED6FED6FED631
:1055A000FED6FED6FED6FED6FED6FEF7EE54E65466
:1055B0007A0E789178717090502A380838083846F9
:1055C000BC2DDC6CD40BD42BD40CAB49D3EBDCEF6F
:1055D000FEB5FE95FEF8C6178CA9FE02FAA0FA20C9
:1055E000FAE0FA00FB60FD40FE41C6A975F975F9C5
:1055F00075F975B98635DDE7FC20FDE0FD40FD401D
:10560000FE60FD20FC80FDA0FEA0FD80FC80FB2054
:10561000ED23754F4C93B68AFD00FA80FB81FBA009
:10562000FCC0ECE16AA7BDF6F7BCD6B8F7BCFFFF3B
:10563000E6FA6B4C3963B5B4DED89BCB8D948E58AB
:105640008638C6ADF5C1C68E8E9B7E1A6DB86DB814
:105650006DF97E1A7E197E197E178E58863B865903
:10566000C6ECFD80FC60FEC1FE41DC61B532FF3955
:10567000FED6FED6FED6FED6FED7FED7FED6FED688
:10568000FEB6FEB6FEB6FEB6FE95FE96FEB6FED69B
:10569000FED6FED6EE75AC2DCBECEDD3FED7FED606
:1056A000FED6FED6FED6FED6FED6FF17CD92CDB3E1
:1056B000822F787278917090502B3808400830060D
:1056C000A32BDC4CD42CCC2BCC0CA329D40BD48D09
:1056D000FE95FEB6FEB6FF5A846CED62FAA0F9C0E4
:1056E000FA00F9A0FBA0FD80F6A2A64D75F975F9A8
:1056F00075D975B99E52ED43FC40FE20FCE0FCE0FC
:10570000FE20FDA0FCC0FDA1FEA0FD60FC80FB20F2
:10571000F4E2754F44759E4FF582FA40FA40FAC0A4
:10572000FC80DC81942FBDD6DED9D6B8A533AD542C
:105730008C4F7B6C7286C615D67793ABA610AEB233
:105740008E56C6ACFDC1C68D8E9A7DFA6DB86DB809
:1057500075D97E1A7E197E197DF98619863A8E3999
:10576000C6EDFDC0FC40FE81FE61CC22C5F5FF17F1
:10577000FEF6FED6FED6FED7FED7FED7FED6FED666
:10578000FEB6FEB5FEB5FEB5E571EDF3FEB6FED68E
:10579000FED6FED6FF17BCAFBB8ADC8EFE96FED6C9
:1057A000FED6FED6FED6FED6FED6FF17C531BD32DA
:1057B000824F787278917090504B380840083007CB
:1057C0008AA9C3AACC0CCC2BCC0CA309D40BD44CE7
:1057D000F655FEB6FEB6FF38BDB5BC24FAE0F9803A
:1057E000F9A0F9C0FBC0FDE0EEC485D075D975D92C
:1057F00075D975F8B64DFCC1FCA0FE61FC80FC605B
:10580000FDE1FE00FD00FD60FE01FD20FCA0FB208F
:10581000F4C27D4E44758E13EDA4FA40F9A0FA202F
:10582000FC40DC82A4B1C637C616F79CC6379CD1B3
:10583000949083088B08DEF9BD9393E9CEC9D72AEB
:10584000A6B2D6AAFDC1C6AE8E7A75D96DB86DB8AE
:1058500075D97E1A7E197DF87DD9861A863A8E39D9
:10586000C6EDFE01FC40FE61FEA0BC04DE78FEF742
:10587000FEF6FED6FED6FED6FED6FED6FED6FED668
:10588000FEB6FEB5FEB5F633CC2CEDB2FEB6FED6B6
:10589000FED6FED6FED6C4CFAB28CC0BEDB2FED6DC
:1058A000FED6FED6FED6FED6FED6FF17C531B4F024
:1058B0008A8F787180717870504B380840083007B3
:1058C0007227AB29C40BD42BCC0CA309D40BCC0B63
:1058D000EDF3FEB6FEB6FED6EF1B93A8FB01F980F2
:1058E000F9C0FA60FC40FE40D6A66D7375F975D913
:1058F00075DA7617CE49FC60FD00FE81FC40FC2085
:10590000FD81FE81FD80FCE0FD20FCE0FC80FB20B1
:10591000F4C27D4E44768615E5E5FA60F980F9E03B
:10592000FC20CC2283CEC617BDD5C657CE57D6F99C
:105930005A879B288BCCEFBC9C0E9C69EF43EF44AD
:10594000C70BE686F5C1BEAF865A6D986DB86DB8C7
:1059500075D97E1A7DF97DF87DF97E1A863A8638EA
:10596000C6EBFE21FC20FE41FE80B406EED9FED639
:10597000FED6FED6FED6FED6FED6FED6FED6FED687
:10598000FEB6FEB5FE95DCEECBEBED91FEB6FEB6B7
:10599000FED6FED6FEF7BC8EBBAAD40BD4AEFE95C7
:1059A000FEB5FEB6FEB6FED6FED6FEF6C552B51163
:1059B00092CF686F78917870504B38084008302744
:1059C00062079B29C3EBD40CCC0BA309D42CCC0BC2
:1059D000E571FEB6FEB6FEB6FF5AA4D1DA81F9A093
:1059E000FA60FB40FCA0FEA0C669653675FA75DA60
:1059F00075DA8635DE06FC40FD60FE80FC20FC008A
:105A0000FD00FEA0FE60FCE0FCC0FCA0FBE0FB0093
:105A1000F5027D4E44757DF5E5E5FA60F980F9E023
:105A2000FC20D4219450B5B5BDF5BDD49CD1B5B5FD
:105A30008B6A9348B5B4DED9936AAD29FF21FEA1E4
:105A4000EF25F642EDE3AED3863A6D976DB875B8A3
:105A500075D97E197DF97E197E1986398E3896366C
:105A6000CF09FE00F3E0FE20FE40AC29F6FAFED698
:105A7000FED6FED6FED6FEF7FED7FED6FEB6FEB6A4
:105A8000FEB6FE95EDB2CC0BCC0BE571FEB6FEB6C4
:105A9000FED6FED6FEF7D550A309D42CCC2BF61398
:105AA000FEB6FEB5FEB6FEB6FEB6FED6C573ACD1EA
:105AB0009AEF506B688F7070502B38084008388808
:105AC00072CA8AC8C3EBD42CCBEBA329D42CD40B39
:105AD000DCEFFEB6FEB6FEB6FEF8D659AA44F9E0F3
